:100000000C9450040C946D040C946D040C946D04C9
:100010000C946D040C946D040C946D040C946D049C
:100020000C946D040C946D040C946D040C946D048C
:100030000C946D040C946D040C946D040C946D047C
:100040000C946D040C946D040C9451090C947F096C
:100050000C946D040C946D040C946D040C946D045C
:100060000C946D040C946D044D6F6465002D002B91
:100070000025730025730025730025730025730088
:10008000257300AEE32000B0C8001040A4A1A681F3
:10009000FFA83FD300D5F0D922DA12DB208D14AFB0
:1000A00000000000000000007E8195B1B195817EC6
:1000B0007EFFEBCFCFEBFF7E0E1F3F7E3F1F0E007C
:1000C000081C3E7F3E1C0800383A9FFF9F3A3800CC
:1000D0001038BCFFBC381000000000000000000019
:1000E0000000000000000000000000000000000010
:1000F000000000000000000070F88888FD7F070FF6
:10010000004E5FF1F15F4E000000000000000000B3
:10011000C0FF7F0505657F3F995A3CE7E73C5A9948
:100120007F3E3E1C1C08080008081C1C3E3E7F0049
:10013000002466FFFF662400005F5F00005F5F0031
:10014000060F097F7F017F7FDABFA5A5FD59030256
:1001500000707070707070008094B6FFFFB694806D
:100160000004067F7F0604000010307F7F301000FF
:100170000808082A3E1C0800081C3E2A0808080037
:100180003C3C202020202000081C3E08083E1C0883
:1001900030383C3E3E3C3830060E1E3E3E1E0E06BB
:1001A000000000000000000000065F5F0600000085
:1001B0000007070007070000147F7F147F7F1400EB
:1001C000242E6B6B3A120000466630180C666200F3
:1001D000307A4F5D377A48000407030000000000C2
:1001E000001C3E63410000000041633E1C00000013
:1001F000082A3E1C1C3E2A0808083E3E080800004B
:1002000000A0E060000000000808080808080000DE
:1002100000006060000000006030180C0603010060
:100220003E7F594D7F3E000042427F7F40400000AC
:10023000627359496F660000226349497F360000A6
:10024000181C16137F7F1000276745457D39000075
:100250003C7E4B4979300000036371190F070000A1
:10026000367F49497F360000064F49693F1E00002E
:1002700000006C6C0000000000A0EC6C00000000AE
:10028000081C3663410000001414141414140000F8
:10029000004163361C080000020351590F0600009C
:1002A0003E7F415D5D1F1E007C7E13137E7C00003F
:1002B000417F7F49497F36001C3E634141632200F4
:1002C000417F7F41637F1C00417F7F495D41630027
:1002D000417F7F491D0103001C3E63415173720041
:1002E0007F7F08087F7F000000417F7F4100000082
:1002F000307040417F3F0100417F7F081C776300E1
:10030000417F7F41406070007F7F060C067F7F0049
:100310007F7F060C187F7F001C3E6341633E1C00FC
:10032000417F7F49090F06001E3F21717F5E00005B
:10033000417F7F19396F460026674D597B32000097
:1003400003417F7F410300007F7F40407F7F0000AB
:100350001F3F60603F1F00007F7F3018307F7F00AD
:1003600063771C081C776300074F78784F070000FD
:100370006773594D47637100007F7F414100000062
:100380000103060C183060000041417F7F0000002F
:10039000080C0603060C0800808080808080808026
:1003A0000000030704000000207454543C7840000F
:1003B000413F7F44447C3800387C44446C28000032
:1003C000307848493F7F4000387C54545C18000026
:1003D000487E7F490302000098BCA4A4F87C040076
:1003E000417F7F08047C780000447D7D4000000050
:1003F00040C484FD7D000000417F7F10386C4400C4
:1004000000417F7F400000007C7C0C180C7C780051
:100410007C7C04047C780000387C44447C380000F8
:1004200084FCF8A4243C1800183C24A4F8FC8400A4
:10043000447C78441C180000485C54547424000028
:1004400000043E7F442400003C7C40403C7C400053
:100450001C3C60603C1C00003C7C6030607C3C00CC
:10046000446C3810386C44009CBCA0A0FC7C00009C
:100470004C64745C4C64000008083E774141000005
:1004800000000077770000004141773E0808000037
:100490000203010302030100787C4643467C780096
:1004A0001EBFE161331200003A7A40407A7A400080
:1004B000387C56575D18000002237555557D7B42E8
:1004C000217554547D794000207557567C78400042
:1004D00000227755557F7A401CBEE2623614000038
:1004E000023B7D55555D1B02397D54545D1900005A
:1004F000387D57565C18000001457C7C41010000A6
:100500000203457D7D43020000457F7E40000000E0
:10051000797D26267D790000707A2D2D7A70000075
:10052000447C7E5755440000207454547C7C5454C1
:100530007C7E0B097F7F4900327B49497B3200007A
:10054000327A48487A32000030794B4A78300000DD
:100550003A7B41417B7A40003879434278784000C9
:10056000BABAA0A0FA7A0000397D4444447D39002B
:100570003D7D40407D3D0000387C64544C7C38001B
:10058000687E7F49436620005C3E7349673E1D00DC
:10059000446C38386C44000040C888FE7F090B0268
:1005A000207456577D78400000447E7F4100000053
:1005B0003078484A7B310000387840427B794000EF
:1005C0007A7B090B7A7301007A7B19337A7B0100FD
:1005D00000262F292F2F280000262F29292F26001B
:1005E00030784D45602000001C227D4B5B65221C4D
:1005F0000808080838380000613F1FCCEEABB990FE
:10060000613F1F4C6673D9F8000060FAFA60000081
:10061000081C3622081C362222361C0822361C08EA
:100620000000000609090600AA55AA55AA55AA55B0
:1006300055FFAAFF55FFAAFF000000FFFF000000C2
:10064000101010FFFF00000070782C2E7B7100004E
:1006500072792D2D79720000717B2E2C787000003C
:100660001C225D555541221C1414F7F700FFFF00B2
:100670000000FFFF00FFFF001414F4F404FCFC0072
:1006800014141717101F1F00183C24E7E724240038
:100690002B2FFCFC2F2B0000101010F0F00000009E
:1006A0000000001F1F1010101010101F1F1010103E
:1006B000101010F0F0101010000000FFFF101010CC
:1006C0001010101010101010101010FFFF1010104C
:1006D000227755577E7B4100727B2D2F7A73010064
:1006E00000001F1F101717140000FCFC04F4F41482
:1006F00014141717101717141414F4F404F4F41442
:100700000000FFFF00F7F714141414141414141449
:100710001414F7F700F7F714663C3C243C3C6600E1
:10072000052772577D380000497F7F49637F1C0091
:10073000467D7D5555460000457D7C54554500005D
:10074000447D7F56544400000A0E0800000000005B
:1007500000447E7F4500000002457D7D450200008B
:1007600001457C7C450100001010101F1F00000097
:10077000000000F0F0101010FFFFFFFFFFFFFFFF71
:10078000F0F0F0F0F0F0F0F00000007777000000FB
:1007900000457F7E440000000F0F0F0F0F0F0F0F5B
:1007A000387C4647457C3800FCFE2A2A3E1400006F
:1007B0003A7D4545457D3A00387C4547467C3800C2
:1007C000327B494B7A3301003A7F4547467F3900F7
:1007D00080FE7E20203E1E00427E7E541C080000CB
:1007E000417F7F55141C08003C7C42437D3C000047
:1007F0003A794141793A00003C7D43427C3C00001B
:10080000B8B8A2A3F97800000C5C72735D0C00000C
:1008100002020202020200000000020301000000C6
:10082000101010101010000044445F5F444400009A
:10083000282828282828000071351F4C6673D9F80D
:10084000060F097F7F017F7FDABFA5A5FD5903024F
:1008500008086B6B080800000080C0400000000022
:1008600000060F090F06000002020000020200004D
:1008700000000010100000000012131F1F101000D5
:10088000001115151F1F0A0000191D151712000071
:1008900000003C3C3C3C0000000000000000000068
:1008A00011241FBECFEFD8E0DEBFCDBF11E0A0E026
:1008B000B1E0ECE7FCE102C005900D92AC31B1076C
:1008C000D9F721E0ACE1B1E001C01D92A53BB20730
:1008D000E1F70E942B060C943C0E0C9400002F9222
:1008E0003F92F101808191810196817090789923E6
:1008F00024F401978E6F9F6F0196918380831092ED
:100900001E013F902F900895E0E8F0E0808189601B
:100910008083808180688083A1E8B0E08C918560CD
:100920008C93F0938900E09388000895ECE7F0E061
:10093000808187608083808180648083EAE7F0E043
:1009400080818360808380818068808380818064EF
:10095000808380917A0086FDFCCF0895ECE7F0E07B
:1009600080818E7F8083EAE7F0E0808180648083ED
:1009700080917A0086FDFCCF6091780070917900BB
:1009800080E090E00E94DF0920E030E040EA50E49F
:100990000E94450A20E030E040E85AE30E94450A00
:1009A00020E030E048EC52E40E94450A0E94A90988
:1009B0006093A9017093AA017F936F9380E091E007
:1009C0009F938F9389E691E09F938F930E94420BB0
:1009D000ECE7F0E0808181608083EAE7F0E08081ED
:1009E000806480830F900F900F900F900F900F9066
:1009F00080917A0086FDFCCF60917800709179003B
:100A000080E090E00E94DF0920E030E040EA50E41E
:100A10000E94450A20E030E040E85AE30E94450A7F
:100A200020E030E048EC52E40E94450A0E94A90907
:100A300060936701709368017F936F9380E091E00A
:100A40009F938F938BEA91E09F938F930E94420B29
:100A50002091A9013091AA018091670190916801CC
:100A6000820F931F0F900F900F900F900F900F9089
:100A700099230CF401969595879580937301909333
:100A800074019F938F9380E091E09F938F9385E70C
:100A900091E09F938F930E94420B0F900F900F90C5
:100AA0000F900F900F9008954B9B09C081E08093A9
:100AB0001E0163E080E00E9419074B99FECF4C9B1A
:100AC00009C081E080931D0163E080E00E94190766
:100AD0004B99FECF4D9B09C081E080931C0163E0E0
:100AE00080E00E9419074B99FECF0895CF93DF93C2
:100AF000C82FD92F60E080E00E941907DF93CF93C1
:100B000080E890E09F938F930E9478080F900F9059
:100B10000F900F90DF91CF910895CF93DF93C82F5F
:100B2000D92F60E086E00E941907DF93CF938DE70D
:100B300090E09F938F930E9478080F900F900F90F2
:100B40000F90DF91CF910895CF93DF93C82FD92FC6
:100B500060E088E00E941907DF93CF938AE790E076
:100B60009F938F930E9478080F900F900F900F9093
:100B7000DF91CF910895CF93DF93C82FD92F61E0F4
:100B800088E00E941907DF93CF9387E790E09F9357
:100B90008F930E9478080F900F900F900F90DF9125
:100BA000CF910895CF93DF93C82FD92F63E082E0D0
:100BB0000E94190781E00E949207DF93CF9384E798
:100BC00090E09F938F930E94780880E00E949207A4
:100BD0000F900F900F900F90DF91CF910895CF93CA
:100BE000DF93C82FD92F66E080E00E941907DF93BA
:100BF000CF9381E790E09F938F930E9478080F90A6
:100C00000F900F900F90DF91CF91089560E08FE0EB
:100C10000E9419078FE690E09F938F930E947808B7
:100C200063E08FE00E9419078DE690E09F938F9319
:100C30000E94780866E08CE00E94190788E690E040
:100C40009F938F930E9478080F900F900F900F90B2
:100C50000F900F900895CF93DF9300D000D01F9294
:100C6000CDB7DEB787B1816087B987B1826087B9B8
:100C700084B1826084B90E945A070E9496040E943F
:100C8000840483E394E49C838B831D821A821982FB
:100C90007894E12CF12C00E010E00F5F1F4F053637
:100CA000110524F00E94AE0400E010E0CE0103968E
:100CB0000E94760560E086E00E94190789819A818A
:100CC000892B29F489E091E00E948D0504C08BE016
:100CD00091E00E948D0589E691E00E94A4058BEACF
:100CE00091E00E94BB0585E791E00E94D205E114E6
:100CF000F10429F48DE091E00E94EF050DC081E040
:100D0000E816F10429F482E191E00E94EF0504C0A5
:100D100087E191E00E94EF050E9406060E945405BB
:100D200080911E01882329F0CE0101961C010E94AA
:100D30006F0489819A81009719F0019779F0ADCFFE
:100D400080911D01882319F010921D0107C0809128
:100D50001C01882309F4A1CF10921C0180911D0170
:100D6000882329F010921D01E12CF12C0AC08091FA
:100D70001C01882309F491CF10921C01EE24E39406
:100D8000F12C87E090E00E94740787CF88B18063E0
:100D900088B91092BC001092B9008CE08093B80022
:100DA0002FEF80E792E0215080409040E1F700C0B3
:100DB0000000089584EA8093BC0080E005C091E0C3
:100DC000980F8536C0F4892F9091BC009923BCF709
:100DD00088E78093BB0084E88093BC0080E005C076
:100DE00091E0980F853648F4892F9091BC009923A3
:100DF000BCF780E0089581E0089581E00895809334
:100E0000BB0084E88093BC0080E005C091E0980FAF
:100E1000853638F4892F9091BC009923BCF780E087
:100E2000089581E00895ECEBF0E084E9808310827E
:100E30000895CF93DF93C82FD62F8093210160931D
:100E400020010E94DA0680E00E94FF068D2F806B51
:100E50000E94FF0681E20E94FF068C2F880F880FF8
:100E6000880F0E94FF068FE70E94FF060E9413076B
:100E7000DF91CF910895CF93DF9360E080E00E94EF
:100E800019070E94DA0680E40E94FF06C0E0D0E065
:100E900004C080E00E94FF062196C11588E0D807B3
:100EA000C0F30E94130760E080E00E941907DF9101
:100EB000CF910895CF930E94C6060E94DA0680E083
:100EC0000E94FF06C0E008C0EC2FF0E0ED57FF4F96
:100ED00084910E94FF06CF5FCD31B0F30E941307CB
:100EE0000E943B07CF910895CF93DF93682F80E056
:100EF0000E9419070E94DA0680E40E94FF06C0E003
:100F0000D0E004C080E00E94FF062196C038D105E1
:100F1000C8F30E94130760E080E00E941907DF9188
:100F2000CF91089580931F010895DF92EF92FF9271
:100F30000F931F93CF93DF93082F80911F01882376
:100F400009F49BC060912001809121010E94190742
:100F50000E94DA0680E40E94FF0610E035C0E02F10
:100F6000F0E0EE0FFF1FEE0FFF1FEE0FFF1FE10F70
:100F7000F11DE056FF4F849180FBEE24E0F8F12C48
:100F8000E82FE270F0E0EE0FFF1FEE0DFF1D282F9F
:100F9000247030E0220F331F220F331FE20FF31FA4
:100FA000887090E0880F991F880F991F880F991FEC
:100FB000E80FF91FDE2EDD0CDE0E8D2D0E94FF06E0
:100FC0008D2D0E94FF061F5F183048F20E94130704
:100FD000609120016F5F809121010E9419070E949A
:100FE000DA0680E40E94FF0610E038C0E02FF0E04F
:100FF000EE0FFF1FEE0FFF1FEE0FFF1FE10FF11DA2
:10100000E056FF4F249122952F70822F8170C82FB8
:1010100080E0D82F822F827090E0880F991F8C0F6C
:101020009D1F422F447050E0440F551F440F551F21
:10103000840F951F287030E0220F331F220F331FBB
:10104000220F331F820F931FF82EFF0CF80E8F2DE7
:101050000E94FF068F2D0E94FF061F5F183030F29E
:101060000E941307809121018E5F8093210180915E
:10107000200181508093200126C060912001809141
:1010800021010E9419070E94DA0680E40E94FF06EF
:10109000C0E010C0E02FF0E0EE0FFF1FEE0FFF1FCB
:1010A000EE0FFF1FEC0FF11DE056FF4F84910E94E1
:1010B000FF06CF5FC83070F30E94130780912101B3
:1010C0008F5F80932101DF91CF911F910F91FF904E
:1010D000EF90DF900895CF93DF93EC0103C021964A
:1010E0000E94950788818111FACFDF91CF910895F1
:1010F0008F929F92AF92BF92DF92EF92FF920F93E7
:101100001F93CF93DF93CDB7DEB764970FB6F894F4
:10111000DEBF0FBECDBFFE01B296019111915F01FE
:10112000D12C78018FEFE81AF80AF801849188230E
:1011300009F4A5C0853209F09EC04801F2E08F0E87
:10114000911CF7018491282F30E0205331092A3077
:10115000310560F48B871C86CE010B960E94DA0A5B
:10116000D82E0D5F1F4FF401849101C08401893690
:1011700081F128F4823651F08336E9F0D2CF8337FB
:1011800039F0883721F18F3661F61FC042E022C066
:101190004501F2E08F0E911CF501E080F18005C061
:1011A000FFEFEF1AFF0A0E949507F7018081811176
:1011B000F7CF5401B6CF7501F2E0EF0EF11CF50147
:1011C00080810E9495075701ACCF48E003C040E101
:1011D00001C04AE050E07501F2E0EF0EF11CBE01E3
:1011E0006F5F7F4FF501808191810E940A0B80E043
:1011F00090E001C0CA01AC014F5F5F4FE1E0F0E059
:10120000EC0FFD1FE80FF91F20812111F3CF2D2DC9
:1012100030E08217930744F5D81A20E030E00AC086
:10122000EBE0F0E0EC0FFD1FE20FF31F80E38083A3
:101230002F5F3F4F8D2D90E0281739078CF3EBE09F
:10124000F0E0EC0FFD1FE20FF31F1082BE016F5F95
:101250007F4FCE010B960E94F80ABE01655F7F4F5B
:10126000CE0101960E94030BCE0101960E946B08ED
:101270005701D12C56CF0E949507870152CF649613
:101280000FB6F894DEBF0FBECDBFDF91CF911F9197
:101290000F91FF90EF90DF90BF90AF909F908F9055
:1012A00008951F920F920FB60F9211242F938F93D0
:1012B0009F93EF93FF938091C0002091C6008871A7
:1012C000E0912401EF5FEF7190912301E91739F06C
:1012D000E0932401F0E0E95DFE4F208301C082E04D
:1012E00090912201892B80932201FF91EF919F9190
:1012F0008F912F910F900FBE0F901F9018951F92F6
:101300000F920FB60F9211248F939F93EF93FF9339
:101310009091260180912501981769F0E0912501AF
:10132000EF5FEF71E0932501F0E0E95BFE4F808114
:101330008093C60005C0E1ECF0E080818F7D808362
:10134000FF91EF919F918F910F900FBE0F901F9083
:1013500018950E94B0096894B1110C943F0A089541
:101360000E94240A88F09F5798F0B92F9927B75107
:10137000B0F0E1F0660F771F881F991F1AF0BA9539
:10138000C9F714C0B13091F00E943E0AB1E008954F
:101390000C943E0A672F782F8827B85F39F0B93F41
:1013A000CCF3869577956795B395D9F73EF49095EC
:1013B0008095709561957F4F8F4F9F4F0895E8946A
:1013C00009C097FB3EF490958095709561957F4F8D
:1013D0008F4F9F4F9923A9F0F92F96E9BB2793953B
:1013E000F695879577956795B795F111F8CFFAF44B
:1013F000BB0F11F460FF1BC06F5F7F4F8F4F9F4F7C
:1014000016C0882311F096E911C0772321F09EE8D9
:10141000872F762F05C0662371F096E8862F70E03F
:1014200060E02AF09A95660F771F881FDAF7880F19
:101430009695879597F9089557FD9058440F551F35
:1014400059F05F3F71F04795880F97FB991F61F046
:101450009F3F79F087950895121613061406551FBD
:10146000F2CF4695F1DF08C0161617061806991F29
:10147000F1CF86957105610508940895E894BB271E
:1014800066277727CB0197F908950E94580A0C9494
:10149000C90A0E94BB0A38F00E94C20A20F09523B4
:1014A00011F00C94B20A0C94B80A11240C943F0A5F
:1014B0000E941C0A70F3959FC1F3950F50E0551FD1
:1014C000629FF001729FBB27F00DB11D639FAA2799
:1014D000F00DB11DAA1F649F6627B00DA11D661FE8
:1014E000829F2227B00DA11D621F739FB00DA11D09
:1014F000621F839FA00D611D221F749F3327A00DC3
:10150000611D231F849F600D211D822F762F6A2F5E
:1015100011249F5750409AF0F1F088234AF0EE0FC3
:10152000FF1FBB1F661F771F881F91505040A9F7F0
:101530009E3F510580F00C94B20A0C943F0A5F3F25
:10154000E4F3983ED4F3869577956795B795F7952C
:10155000E7959F5FC1F7FE2B880F911D96958795A4
:1015600097F9089597F99F6780E870E060E0089523
:101570009FEF80EC089500240A94161617061806AB
:101580000906089500240A94121613061406050687
:101590000895092E0394000C11F4882352F0BB0F18
:1015A00040F4BF2B11F460FF04C06F5F7F4F8F4F7B
:1015B0009F4F0895FC0188279927E89421912032B4
:1015C000E9F3293010F02E30C8F32B3241F02D32E0
:1015D00039F4689404C00E94200B820F911D219160
:1015E00020532A30C0F31EF4909581959F4F0895A3
:1015F000FB01DC010D900020E9F7119701900D929D
:101600000020E1F70895FB01DC0101900D9200201C
:10161000E1F708954532510520F4423010F00C9462
:10162000150BFB011082CB010895BB274A3031F422
:10163000992322F4BDE2909581959F4F0C94290B3C
:101640007AE0979F902D879F802D910D112408950A
:10165000BB27FB015527AA27880F991FAA1FA4178C
:1016600010F0A41B83955051B9F7A05DAA3308F080
:10167000A95DA193009779F7B111B1931192CB01B4
:101680000C945B0DAEE0B0E0E8E4FBE00C94130ECC
:101690000D891E8986E08C831A8309838FEF9FE76B
:1016A0009E838D83AE01475E5F4F6F89788DCE013B
:1016B00001960E94640BEF81F885E00FF11F108204
:1016C0002E96E4E00C942F0EABE0B0E0EAE6FBE0EF
:1016D0000C94050E6C017B018A01FC0117821682B5
:1016E000838181FFCCC1CE0101963C01F60193813B
:1016F000F70193FD859193FF81917F01882309F480
:10170000BAC1853239F493FD859193FF81917F01B0
:10171000853229F4B60190E00E946B0DE7CF912C41
:10172000212C312CFFE1F315D8F08B3279F038F40D
:10173000803279F08332A1F4232D20611DC08D32D7
:1017400061F0803369F4232D216016C0832D8260FF
:10175000382EE32DE4603E2E2AC0F32DF8601DC024
:1017600037FC2DC020ED280F2A3040F08E32B9F41E
:1017700036FC81C1232D2064322E19C036FE06C0EE
:101780008AE0989E200D1124922E11C0EAE02E9E30
:10179000200D1124222EF32DF0623F2E08C08C362E
:1017A00021F4832D8068382E02C0883641F4F70179
:1017B00093FD859193FF81917F018111B3CF982F84
:1017C0009F7D9554933028F40C5F1F4F9FE39983BE
:1017D0000DC0833631F0833771F0833509F059C07D
:1017E00021C0F801808189830E5F1F4F8824839474
:1017F000912C530113C02801F2E04F0E511CF80147
:10180000A080B18036FE03C0692D70E002C06FEF8A
:101810007FEFC5010E94500D4C018201F32DFF772F
:101820003F2E16C0280122E0420E511CF801A08074
:10183000B18036FE03C0692D70E002C06FEF7FEF0C
:10184000C5010E94450D4C01F32DF0683F2E820129
:1018500033FC1BC0822D90E088169906B0F4B601C7
:1018600080E290E00E946B0D2A94F4CFF50137FCE2
:10187000859137FE81915F01B60190E00E946B0D6A
:1018800021102A9421E0821A91088114910471F7A1
:10189000E8C0843611F0893641F5F80137FE07C0FB
:1018A00060817181828193810C5F1F4F08C06081CC
:1018B0007181072E000C880B990B0E5F1F4FF32DC3
:1018C000FF763F2E97FF09C09095809570956195A2
:1018D0007F4F8F4F9F4FF0683F2E2AE030E0A301EB
:1018E0000E94A70D882E861845C0853731F4232D18
:1018F0002F7EB22E2AE030E025C0932D997FB92E9D
:101900008F36C1F018F4883579F0B5C0803719F0FA
:10191000883721F0B0C0E92FE061BE2EB4FE0DC0C3
:10192000FB2DF460BF2E09C034FE0AC0292F2660AB
:10193000B22E06C028E030E005C020E130E002C051
:1019400020E132E0F801B7FE07C060817181828139
:1019500093810C5F1F4F06C06081718180E090E031
:101960000E5F1F4FA3010E94A70D882E8618FB2D26
:10197000FF773F2E36FE0DC0232D2E7FA22E891419
:1019800058F434FE0BC032FC09C0832D8E7EA82E85
:1019900005C0B82CA32C03C0B82C01C0B92CA4FEE0
:1019A0000FC0FE01E80DF11D8081803321F49A2DD6
:1019B000997EA92E09C0A2FE06C0B394B39404C0B8
:1019C0008A2D867809F0B394A3FC11C0A0FE06C04E
:1019D000B21488F4280C922C9B180EC0B21460F438
:1019E000B60180E290E00E946B0DB394F7CFB21481
:1019F00018F42B1802C0982C212CA4FE10C0B6019C
:101A000080E390E00E946B0DA2FE17C0A1FC03C012
:101A100088E790E002C088E590E0B6010CC08A2D0E
:101A2000867859F0A1FE02C08BE201C080E2A7FCDB
:101A30008DE2B60190E00E946B0D891438F4B60176
:101A400080E390E00E946B0D9A94F7CF8A94F301A3
:101A5000E80DF11D8081B60190E00E946B0D8110B0
:101A6000F5CF222009F442CEB60180E290E00E9438
:101A70006B0D2A94F6CFF6018681978102C08FEF15
:101A80009FEF2B96E2E10C94210EFC010590615032
:101A900070400110D8F7809590958E0F9F1F089584
:101AA000FC016150704001900110D8F7809590952D
:101AB0008E0F9F1F0895DC01FC01672F7191772322
:101AC000E1F7329704C07C916D9370836291AE17F9
:101AD000BF07C8F308950F931F93CF93DF93FB01C4
:101AE000238121FD03C08FEF9FEF2CC022FF16C082
:101AF00046815781248135814217530744F4A081E0
:101B0000B1819D012F5F3F4F318320838C932681CC
:101B100037812F5F3F4F3783268314C08B01EC0141
:101B2000FB010084F185E02D0995892BE1F6D801B0
:101B300016968D919C911797019617969C938E936C
:101B40001697CE01DF91CF911F910F910895FA0161
:101B5000AA27283051F1203181F1E8946F936E7FEC
:101B60006E5F7F4F8F4F9F4FAF4FB1E03ED0B4E0DD
:101B70003CD0670F781F891F9A1FA11D680F791F1E
:101B80008A1F911DA11D6A0F711D811D911DA11D2F
:101B900020D009F468943F912AE0269F112430193F
:101BA000305D3193DEF6CF010895462F4770405DDA
:101BB0004193B3E00FD0C9F7F6CF462F4F70405D89
:101BC0004A3318F0495D31FD4052419302D0A9F7E4
:101BD000EACFB4E0A6959795879577956795BA95DE
:101BE000C9F700976105710508959B01AC010A2EA4
:101BF00006945795479537952795BA95C9F7620F7B
:101C0000731F841F951FA01D08952F923F924F921E
:101C10005F926F927F928F929F92AF92BF92CF927C
:101C2000DF92EF92FF920F931F93CF93DF93CDB785
:101C3000DEB7CA1BDB0B0FB6F894DEBF0FBECDBFFD
:101C400009942A88398848885F846E847D848C84CE
:101C50009B84AA84B984C884DF80EE80FD800C81D7
:101C60001B81AA81B981CE0FD11D0FB6F894DEBFBA
:0C1C70000FBECDBFED010895F894FFCF2A
:101C7C002564B043005044360041004D0048656176
:0C1C8C00740056656E74004F6666000020
:00000001FF
