:100000000C9461040C947E040C947E040C947E0485
:100010000C947E040C947E040C947E040C947E0458
:100020000C947E040C947E040C947E040C947E0448
:100030000C947E040C94D2040C947E040C947E04E4
:100040000C947E040C947E040C94E8080C9416091D
:100050000C947E040C947E040C947E040C947E0418
:100060000C947E040C947E047463680073776900BA
:100070002D002B006F6666006F6E0056656E740073
:100080003232B043006F6666006F6E00486561747F
:1000900000372E38B0430032342E37B043004D00C5
:1000A0004100334400AEE32000B0C8001040A4A1DA
:1000B000A681FFA83FD300D5F0D922DA12DB208D2C
:1000C00014AF00000000000000007E8195B1B195E2
:1000D000817E7EFFEBCFCFEBFF7E0E1F3F7E3F1F6B
:1000E0000E00081C3E7F3E1C0800383A9FFF9F3AD6
:1000F00038001038BCFFBC381000000000000000C1
:1001000000000000000000000000000000000000EF
:100110000000000000000000000070F88888FD7FEB
:10012000070F004E5FF1F15F4E000000000000007D
:100130000000C0FF7F0505657F3F995A3CE7E73C1B
:100140005A997F3E3E1C1C08080008081C1C3E3EB5
:100150007F00002466FFFF662400005F5F00005FF1
:100160005F00060F097F7F017F7FDABFA5A5FD59DC
:10017000030200707070707070008094B6FFFFB65C
:1001800094800004067F7F0604000010307F7F30DB
:1001900010000808082A3E1C0800081C3E2A08080F
:1001A00008003C3C202020202000081C3E08083E7F
:1001B0001C0830383C3E3E3C3830060E1E3E3E1E8B
:1001C0000E06000000000000000000065F5F060051
:1001D00000000007070007070000147F7F147F7FDF
:1001E0001400242E6B6B3A120000466630180C6621
:1001F0006200307A4F5D377A480004070300000040
:100200000000001C3E63410000000041633E1C00F2
:100210000000082A3E1C1C3E2A0808083E3E08082A
:10022000000000A0E06000000000080808080808BE
:10023000000000006060000000006030180C060341
:1002400001003E7F594D7F3E000042427F7F40408B
:100250000000627359496F660000226349497F3686
:100260000000181C16137F7F1000276745457D3955
:1002700000003C7E4B4979300000036371190F0781
:100280000000367F49497F360000064F49693F1E0E
:10029000000000006C6C0000000000A0EC6C00008E
:1002A0000000081C366341000000141414141414D8
:1002B0000000004163361C080000020351590F067C
:1002C00000003E7F415D5D1F1E007C7E13137E7C1F
:1002D0000000417F7F49497F36001C3E63414163F6
:1002E0002200417F7F41637F1C00417F7F495D4148
:1002F0006300417F7F491D0103001C3E6341517330
:1003000072007F7F08087F7F000000417F7F4100EF
:100310000000307040417F3F0100417F7F081C7723
:100320006300417F7F41406070007F7F060C067F45
:100330007F007F7F060C187F7F001C3E6341633E79
:100340001C00417F7F49090F06001E3F21717F5E1F
:100350000000417F7F19396F460026674D597B3277
:10036000000003417F7F410300007F7F40407F7F8B
:1003700000001F3F60603F1F00007F7F3018307F0C
:100380007F0063771C081C776300074F78784F075E
:1003900000006773594D47637100007F7F41410042
:1003A00000000103060C183060000041417F7F000F
:1003B0000000080C0603060C080080808080808006
:1003C00080800000030704000000207454543C782F
:1003D0004000413F7F44447C3800387C44446C28D2
:1003E0000000307848493F7F4000387C54545C1806
:1003F0000000487E7F490302000098BCA4A4F87C5A
:100400000400417F7F08047C780000447D7D40002B
:10041000000040C484FD7D000000417F7F10386CE7
:10042000440000417F7F400000007C7C0C180C7C65
:1004300078007C7C04047C780000387C44447C3860
:10044000000084FCF8A4243C1800183C24A4F8FC08
:100450008400447C78441C180000485C5454742484
:10046000000000043E7F442400003C7C40403C7C73
:1004700040001C3C60603C1C00003C7C6030607CA8
:100480003C00446C3810386C44009CBCA0A0FC7C40
:1004900000004C64745C4C64000008083E774141E5
:1004A000000000000077770000004141773E080817
:1004B00000000203010302030100787C4643467CEE
:1004C00078001EBFE161331200003A7A40407A7A28
:1004D0004000387C56575D18000002237555557D45
:1004E0007B42217554547D794000207557567C78A5
:1004F000400000227755557F7A401CBEE2623614D8
:100500000000023B7D55555D1B02397D54545D1939
:100510000000387D57565C18000001457C7C410185
:1005200000000203457D7D43020000457F7E4000C0
:100530000000797D26267D790000707A2D2D7A7055
:100540000000447C7E5755440000207454547C7C49
:1005500054547C7E0B097F7F4900327B49497B32B2
:100560000000327A48487A32000030794B4A7830BD
:1005700000003A7B41417B7A4000387943427878E9
:100580004000BABAA0A0FA7A0000397D4444447D04
:1005900039003D7D40407D3D0000387C64544C7CFA
:1005A0003800687E7F49436620005C3E7349673EA1
:1005B0001D00446C38386C44000040C888FE7F0938
:1005C0000B02207456577D78400000447E7F410026
:1005D00000003078484A7B310000387840427B790F
:1005E00040007A7B090B7A7301007A7B19337A7B9E
:1005F000010000262F292F2F280000262F29292F20
:10060000260030784D45602000001C227D4B5B6544
:10061000221C0808080838380000613F1FCCEEABE8
:10062000B990613F1F4C6673D9F8000060FAFA6018
:100630000000081C3622081C362222361C082236EE
:100640001C080000000609090600AA55AA55AA556B
:10065000AA5555FFAAFF55FFAAFF000000FFFF00A3
:100660000000101010FFFF00000070782C2E7B712E
:10067000000072792D2D79720000717B2E2C78701C
:1006800000001C225D555541221C1414F7F700FF91
:10069000FF000000FFFF00FFFF001414F4F404FC4F
:1006A000FC0014141717101F1F00183C24E7E72440
:1006B00024002B2FFCFC2F2B0000101010F0F0005A
:1006C00000000000001F1F1010101010101F1F103E
:1006D0001010101010F0F0101010000000FFFF10AC
:1006E00010101010101010101010101010FFFF102C
:1006F0001010227755577E7B4100727B2D2F7A7325
:10070000010000001F1F101717140000FCFC04F468
:10071000F41414141717101717141414F4F404F421
:10072000F4140000FFFF00F7F71414141414141449
:1007300014141414F7F700F7F714663C3C243C3CFF
:100740006600052772577D380000497F7F49637F27
:100750001C00467D7D5555460000457D7C54554521
:100760000000447D7F56544400000A0E080000003B
:10077000000000447E7F4500000002457D7D45026B
:10078000000001457C7C450100001010101F1F0077
:100790000000000000F0F0101010FFFFFFFFFFFF4F
:1007A000FFFFF0F0F0F0F0F0F0F0000000777700DD
:1007B000000000457F7E440000000F0F0F0F0F0F59
:1007C0000F0F387C4647457C3800FCFE2A2A3E1431
:1007D00000003A7D4545457D3A00387C4547467CDA
:1007E0003800327B494B7A3301003A7F4547467FD8
:1007F000390080FE7E20203E1E00427E7E541C0872
:100800000000417F7F55141C08003C7C42437D3C26
:1008100000003A794141793A00003C7D43427C3CFA
:100820000000B8B8A2A3F97800000C5C72735D0CEC
:1008300000000202020202020000000002030100A6
:100840000000101010101010000044445F5F44447A
:100850000000282828282828000071351F4C6673BE
:10086000D9F8060F097F7F017F7FDABFA5A5FD5963
:10087000030208086B6B080800000080C0400000FD
:10088000000000060F090F0600000202000002022D
:10089000000000000010100000000012131F1F10C5
:1008A0001000001115151F1F0A0000191D15171241
:1008B000000000003C3C3C3C000000000000000048
:1008C000000011241FBECFEFD8E0DEBFCDBF11E086
:1008D000A0E0B1E0E4E7F3E102C005900D92A8309A
:1008E000B107D9F721E0A8E0B1E001C01D92A5351C
:1008F000B207E1F70E944E050C94B8090C94000071
:100900002F923F92F10180819181019681709078C0
:10091000992324F401978E6F9F6F019691838083B2
:1009200010920C013F902F900895FC019181933417
:1009300039F0943441F0923449F465E270E00AC031
:1009400068E270E007C06BE270E004C060E070E055
:1009500080E00895828180530895E62FF72F9081DB
:1009600021E030E002C0220F331F8A95E2F7292BE5
:1009700020830895E62FF72F908121E030E002C018
:10098000220F331F8A95E2F72095292320830895AB
:1009900084B5836084BD84B5806C84BD84B5856076
:1009A00084BD08951F920F920FB60F9211242F93BA
:1009B0003F934F935F936F937F938F939F93AF93E7
:1009C000BF93EF93FF9380E091E00E949504209104
:1009D0000801309109012038310518F40E94AD0456
:1009E00002C00E94BA048091080190910901019609
:1009F00090930901809308018F3F910520F0109298
:100A0000090110920801FF91EF91BF91AF919F9161
:100A10008F917F916F915F914F913F912F910F90A7
:100A20000FBE0F901F901895ECE7F0E08081866074
:100A30008083808180648083EAE7F0E08081836046
:100A400080838081806880838081806480838091BE
:100A50007A0086FDFCCF08954B9B09C081E080930E
:100A60000C0163E080E00E94B0064B99FECF4C9BE6
:100A700009C081E080930B0163E080E00E94B00632
:100A80004B99FECF4D9B09C081E080930A0163E042
:100A900080E00E94B0064B99FECF0895CF93DF937C
:100AA00000D0CDB7DEB787B1816087B987B18260EA
:100AB00087B90E94F1060E9414050E94C8041A8298
:100AC0001982789400E010E060E080E00E94B006B7
:100AD00082EA90E09F938F930E940F0860E086E087
:100AE0000E94B0060F900F9089819A81892B49F45A
:100AF00080EA90E09F938F930E940F080F900F90D1
:100B000008C08EE990E09F938F930E940F080F908A
:100B10000F9060E088E00E94B00687E990E09F9324
:100B20008F930E940F0861E088E00E94B00681E97F
:100B300090E09F938F930E940F0866E080E00E94F0
:100B4000B0068CE890E09F938F930E940F0867E0B7
:100B500080E00E94B0060F900F900F900F900F90C2
:100B60000F90112349F089E890E09F938F930E94A2
:100B70000F080F900F9008C085E890E09F938F9327
:100B80000E940F080F900F9063E082E00E94B00671
:100B900081E00E94290780E890E09F938F930E9454
:100BA0000F0880E00E94290766E085E00E94B006F9
:100BB0008BE790E09F938F930E940F0867E085E09A
:100BC0000E94B0060F900F900F900F90002349F0F5
:100BD00088E790E09F938F930E940F080F900F90EB
:100BE00008C084E790E09F938F930E940F080F90B6
:100BF0000F9060E08FE00E94B00682E790E09F9344
:100C00008F930E940F0863E08FE00E94B00680E798
:100C100090E09F938F930E940F0866E08DE00E9402
:100C2000B0068CE690E09F938F930E940F0867E0D8
:100C30008DE00E94B00688E690E09F938F930E941B
:100C40000F080E942C050FB6F894DEBF0FBECDBF73
:100C500080910C01882329F0CE0101961C010E948D
:100C6000800489819A81009719F0019779F02CCF3F
:100C700080910B01882319F010920B0107C080911D
:100C80000A01882309F420CF10920A0180910B01F8
:100C9000882329F010920B0100E011E009C0809137
:100CA0000A01882309F410CF10920A0101E010E034
:100CB00087E090E00E940B0707CF88B1806388B976
:100CC0001092BC001092B9008CE08093B8002FEF16
:100CD00080E792E0215080409040E1F700C00000A2
:100CE000089584EA8093BC0080E005C091E0980FED
:100CF0008536C0F4892F9091BC009923BCF788E712
:100D00008093BB0084E88093BC0080E005C091E044
:100D1000980F853648F4892F9091BC009923BCF731
:100D200080E0089581E0089581E008958093BB00FC
:100D300084E88093BC0080E005C091E0980F853680
:100D400038F4892F9091BC009923BCF780E0089576
:100D500081E00895ECEBF0E084E98083108208954F
:100D6000CF93DF93C82FD62F80930F0160930E018E
:100D70000E94710680E00E9496068D2F806B0E9473
:100D8000960681E20E9496068C2F880F880F880FA6
:100D90000E9496068FE70E9496060E94AA06DF919F
:100DA000CF910895CF93DF9360E080E00E94B0067A
:100DB0000E94710680E40E949606C0E0D0E004C064
:100DC00080E00E9496062196C11588E0D807C0F3FE
:100DD0000E94AA0660E080E00E94B006DF91CF91F9
:100DE0000895CF930E945D060E94710680E00E94E4
:100DF0009606C0E008C0EC2FF0E0EB55FF4F849161
:100E00000E949606CF5FCD31B0F30E94AA060E94E1
:100E1000D206CF910895CF93DF93682F80E00E9490
:100E2000B0060E94710680E40E949606C0E0D0E001
:100E300004C080E00E9496062196C038D105C8F310
:100E40000E94AA0660E080E00E94B006DF91CF9188
:100E5000089580930D010895DF92EF92FF920F9312
:100E60001F93CF93DF93082F80910D01882309F4FE
:100E70009BC060910E0180910F010E94B0060E94FC
:100E8000710680E40E94960610E035C0E02FF0E085
:100E9000EE0FFF1FEE0FFF1FEE0FFF1FE10FF11D03
:100EA000EE53FF4F849180FBEE24E0F8F12CE82F05
:100EB000E270F0E0EE0FFF1FEE0DFF1D282F2470F3
:100EC00030E0220F331F220F331FE20FF31F887011
:100ED00090E0880F991F880F991F880F991FE80FBE
:100EE000F91FDE2EDD0CDE0E8D2D0E9496068D2D57
:100EF0000E9496061F5F183048F20E94AA06609171
:100F00000E016F5F80910F010E94B0060E94710672
:100F100080E40E94960610E038C0E02FF0E0EE0F6B
:100F2000FF1FEE0FFF1FEE0FFF1FE10FF11DEE532E
:100F3000FF4F249122952F70822F8170C82F80E05F
:100F4000D82F822F827090E0880F991F8C0F9D1FE1
:100F5000422F447050E0440F551F440F551F840F1B
:100F6000951F287030E0220F331F220F331F220FEE
:100F7000331F820F931FF82EFF0CF80E8F2D0E9447
:100F800096068F2D0E9496061F5F183030F20E9441
:100F9000AA0680910F018E5F80930F0180910E0150
:100FA000815080930E0126C060910E0180910F0147
:100FB0000E94B0060E94710680E40E949606C0E07E
:100FC00010C0E02FF0E0EE0FFF1FEE0FFF1FEE0F3F
:100FD000FF1FEC0FF11DEE53FF4F84910E94960608
:100FE000CF5FC83070F30E94AA0680910F018F5F17
:100FF00080930F01DF91CF911F910F91FF90EF90A0
:10100000DF900895CF93DF93EC0103C021960E94F7
:101010002C0788818111FACFDF91CF9108958F92AB
:101020009F92AF92BF92DF92EF92FF920F931F9326
:10103000CF93DF93CDB7DEB764970FB6F894DEBFDA
:101040000FBECDBFFE01B296019111915F01D12C6F
:1010500078018FEFE81AF80AF8018491882309F4DF
:10106000A5C0853209F09EC04801F2E08F0E911CA8
:10107000F7018491282F30E0205331092A303105BF
:1010800060F48B871C86CE010B960E944009D82EF7
:101090000D5F1F4FF401849101C08401893681F1F5
:1010A00028F4823651F08336E9F0D2CF833739F015
:1010B000883721F18F3661F61FC042E022C045011A
:1010C000F2E08F0E911CF501E080F18005C0FFEF8A
:1010D000EF1AFF0A0E942C07F70180818111F7CFD8
:1010E0005401B6CF7501F2E0EF0EF11CF5018081DD
:1010F0000E942C075701ACCF48E003C040E101C07B
:101100004AE050E07501F2E0EF0EF11CBE016F5FA6
:101110007F4FF501808191810E94700980E090E00D
:1011200001C0CA01AC014F5F5F4FE1E0F0E0EC0F9E
:10113000FD1FE80FF91F20812111F3CF2D2D30E085
:101140008217930744F5D81A20E030E00AC0EBE09C
:10115000F0E0EC0FFD1FE20FF31F80E380832F5FB1
:101160003F4F8D2D90E0281739078CF3EBE0F0E02E
:10117000EC0FFD1FE20FF31F1082BE016F5F7F4F68
:10118000CE010B960E945E09BE01655F7F4FCE01C6
:1011900001960E946909CE0101960E94020857013A
:1011A000D12C56CF0E942C07870152CF64960FB6E0
:1011B000F894DEBF0FBECDBFDF91CF911F910F918D
:1011C000FF90EF90DF90BF90AF909F908F90089529
:1011D0001F920F920FB60F9211242F938F939F930C
:1011E000EF93FF938091C0002091C6008871E09139
:1011F0001201EF5FEF7190911101E91739F0E0935F
:101200001201F0E0EB5EFE4F208301C082E090917E
:101210001001892B80931001FF91EF919F918F9185
:101220002F910F900FBE0F901F9018951F920F9245
:101230000FB60F9211248F939F93EF93FF9390918A
:10124000140180911301981769F0E0911301EF5F89
:10125000EF71E0931301F0E0EB5CFE4F808180932F
:10126000C60005C0E1ECF0E080818F7D8083FF91B6
:10127000EF919F918F910F900FBE0F901F90189537
:10128000FC0188279927E89421912032E9F329303D
:1012900010F02E30C8F32B3241F02D3239F468941F
:1012A00004C00E948609820F911D219120532A308B
:1012B000C0F31EF4909581959F4F0895FB01DC01CA
:1012C0000D900020E9F7119701900D920020E1F7B1
:1012D0000895FB01DC0101900D920020E1F70895D3
:1012E0004532510520F4423010F00C947B09FB018B
:1012F0001082CB010895BB274A3031F4992322F4A0
:10130000BDE2909581959F4F0C948F097AE0979F4D
:10131000902D879F802D910D11240895BB27FB01EF
:101320005527AA27880F991FAA1FA41710F0A41BDE
:1013300083955051B9F7A05DAA3308F0A95DA19338
:10134000009779F7B111B1931192CB010C94A809D0
:10135000DC01FC01672F71917723E1F7329704C01C
:101360007C916D9370836291AE17BF07C8F30895A7
:04137000F894FFCF1F
:081374005043330050443600E1
:00000001FF
