:100000000C9443040C9460040C9460040C946004FD
:100010000C9460040C9460040C9460040C946004D0
:100020000C9460040C9460040C9460040C946004C0
:100030000C9460040C9460040C9460040C946004B0
:100040000C9460040C9460040C9471060C949F064C
:100050000C9460040C9460040C9460040C94600490
:100060000C9460040C946004AEE32000B0C800104F
:1000700040A4A1A681FFA83FD300D5F0D922DA126F
:10008000DB208D14AF00000000000000007E819591
:10009000B1B195817E7EFFEBCFCFEBFF7E0E1F3F90
:1000A0007E3F1F0E00081C3E7F3E1C0800383A9F12
:1000B000FF9F3A38001038BCFFBC38100000000029
:1000C0000000000000000000000000000000000030
:1000D0000000000000000000000000000070F88830
:1000E00088FD7F070F004E5FF1F15F4E00000000BA
:1000F0000000000000C0FF7F0505657F3F995A3C66
:10010000E7E73C5A997F3E3E1C1C08080008081C83
:100110001C3E3E7F00002466FFFF662400005F5FF8
:1001200000005F5F00060F097F7F017F7FDABFA5B8
:10013000A5FD59030200707070707070008094B655
:10014000FFFFB694800004067F7F06040000103095
:100150007F7F3010000808082A3E1C0800081C3E5B
:100160002A080808003C3C202020202000081C3ED3
:1001700008083E1C0830383C3E3E3C3830060E1E17
:100180003E3E1E0E06000000000000000000065F5C
:100190005F060000000007070007070000147F7FCC
:1001A000147F7F1400242E6B6B3A120000466630D9
:1001B000180C666200307A4F5D377A4800040703F6
:1001C0000000000000001C3E63410000000041638D
:1001D0003E1C000000082A3E1C1C3E2A0808083E5F
:1001E0003E0808000000A0E06000000000080808C9
:1001F000080808000000006060000000006030187F
:100200000C060301003E7F594D7F3E000042427FB5
:100210007F40400000627359496F660000226349C5
:10022000497F360000181C16137F7F100027674592
:10023000457D3900003C7E4B4979300000036371F5
:10024000190F070000367F49497F360000064F49E5
:10025000693F1E000000006C6C0000000000A0EC74
:100260006C00000000081C366341000000141414E8
:100270001414140000004163361C080000020351EE
:10028000590F0600003E7F415D5D1F1E007C7E13FE
:10029000137E7C0000417F7F49497F36001C3E630E
:1002A0004141632200417F7F41637F1C00417F7F8A
:1002B000495D416300417F7F491D0103001C3E638E
:1002C00041517372007F7F08087F7F000000417FEB
:1002D0007F41000000307040417F3F0100417F7F3F
:1002E000081C776300417F7F41406070007F7F067C
:1002F0000C067F7F007F7F060C187F7F001C3E630B
:1003000041633E1C00417F7F49090F06001E3F21CB
:10031000717F5E0000417F7F19396F460026674D6F
:10032000597B32000003417F7F410300007F7F4003
:10033000407F7F00001F3F60603F1F00007F7F30D5
:1003400018307F7F0063771C081C776300074F78A5
:10035000784F0700006773594D47637100007F7F36
:1003600041410000000103060C18306000004141CB
:100370007F7F000000080C0603060C0800808080C8
:1003800080808080800000030704000000207454F7
:10039000543C784000413F7F44447C3800387C44E2
:1003A000446C280000307848493F7F4000387C5436
:1003B000545C180000487E7F490302000098BCA4EA
:1003C000A4F87C0400417F7F08047C780000447D11
:1003D0007D4000000040C484FD7D000000417F7F1F
:1003E00010386C440000417F7F400000007C7C0C92
:1003F000180C7C78007C7C04047C780000387C44F9
:10040000447C38000084FCF8A4243C1800183C24E8
:10041000A4F8FC8400447C78441C180000485C5418
:10042000547424000000043E7F442400003C7C40BF
:10043000403C7C40001C3C60603C1C00003C7C60FC
:1004400030607C3C00446C3810386C44009CBCA08C
:10045000A0FC7C00004C64745C4C64000008083E06
:1004600077414100000000007777000000414177AC
:100470003E080800000203010302030100787C46E5
:1004800043467C78001EBFE161331200003A7A4097
:10049000407A7A4000387C56575D18000002237578
:1004A00055557D7B42217554547D79400020755708
:1004B000567C78400000227755557F7A401CBEE27A
:1004C0006236140000023B7D55555D1B02397D5498
:1004D000545D190000387D57565C18000001457CBA
:1004E0007C410100000203457D7D43020000457F01
:1004F0007E40000000797D26267D790000707A2DEF
:100500002D7A700000447C7E5755440000207454BE
:10051000547C7C54547C7E0B097F7F4900327B499C
:10052000497B320000327A48487A32000030794BF9
:100530004A783000003A7B41417B7A400038794369
:100540004278784000BABAA0A0FA7A0000397D4417
:1005500044447D39003D7D40407D3D0000387C6451
:10056000544C7C3800687E7F49436620005C3E73B3
:1005700049673E1D00446C38386C44000040C88810
:10058000FE7F090B02207456577D78400000447EA0
:100590007F410000003078484A7B310000387840C5
:1005A000427B7940007A7B090B7A7301007A7B19D0
:1005B000337A7B010000262F292F2F280000262FB9
:1005C00029292F260030784D45602000001C227D0F
:1005D0004B5B65221C0808080838380000613F1F83
:1005E000CCEEABB990613F1F4C6673D9F800006048
:1005F000FAFA600000081C3622081C362222361C3B
:100600000822361C08AA005500AA005500AA55AABF
:1006100055AA55AA5555FFAAFF55FFAAFF0000008D
:10062000FFFF000000101010FFFF00000070782C8A
:100630002E7B71000072792D2D79720000717B2E56
:100640002C787000001C225D555541221C1414F7B3
:10065000F700FFFF000000FFFF00FFFF001414F48D
:10066000F404FCFC0014141717101F1F00183C247E
:10067000E7E72424002B2FFCFC2F2B000010101088
:10068000F0F00000000000001F1F101010101010EC
:100690001F1F101010101010F0F0101010000000AC
:1006A000FFFF10101010101010101010101010106C
:1006B000FFFF101010227755577E7B4100727B2D73
:1006C0002F7A73010000001F1F101717140000FC81
:1006D000FC04F4F41414141717101717141414F45A
:1006E000F404F4F4140000FFFF00F7F714141414DA
:1006F00014141414141414F7F700F7F714663C3CA0
:10070000243C3C6600052772577D380000497F7FF6
:1007100049637F1C00467D7D5555460000457D7C24
:100720005455450000447D7F56544400000A0E088D
:10073000000000000000447E7F4500000002457D6F
:100740007D4502000001457C7C4501000010101031
:100750001F1F000000000000F0F0101010FFFFFF4E
:10076000FFFFFFFFFFF0F0F0F0F0F0F0F00000000E
:10077000777700000000457F7E440000000F0F0FD8
:100780000F0F0F0F0F387C4647457C3800FCFE2AC0
:100790002A3E1400003A7D4545457D3A00387C45A7
:1007A00047467C3800327B494B7A3301003A7F451B
:1007B00047467F390080FE7E20203E1E00427E7E1E
:1007C000541C080000417F7F55141C08003C7C42EB
:1007D000437D3C00003A794141793A00003C7D4339
:1007E000427C3C0000B8B8A2A3F97800000C5C720F
:1007F000735D0C000002020202020200000000020F
:100800000301000000101010101010000044445F9D
:100810005F44440000282828282828000071351F3C
:100820004C6673D9F8060F097F7F017F7FDABFA579
:10083000A5FD59030208086B6B080800000080C082
:10084000400000000000060F090F06000002020031
:10085000000202000000000010100000000012134F
:100860001F1F101000001115151F1F0A0000191D71
:10087000151712000000003C3C3C3C00000000004A
:1008800000000000000011241FBECFEFD8E0DEBF43
:10089000CDBF11E0A0E0B1E0EAEFFDE002C00590BD
:1008A0000D92AA30B107D9F721E0AAE0B1E001C06A
:1008B0001D92A038B207E1F70E94C9040C94FB0610
:1008C0000C9400000E94E20690930D0180930C01AD
:1008D0008FE59AEE0197F1F700C0000080910C01BE
:1008E00090910D0190FD2CC010920B0110920A0105
:1008F0001AC080910A0190910B01853191056CF429
:1009000030FD0BC0AC014F5F5F4F50930B01409324
:100910000A01FC01E559FE4F20830E94E2069093F4
:100920000D0180930C0120910C0130910D012111DA
:10093000E0CFE0910A01F0910B01E559FE4F1082E2
:100940000895CF93DF93C0E0D0E01DC0FE01E559CC
:10095000FE4F808181110CC060E08C2F0E94330516
:1009600080E20E948E05FE01E459FE4F10820AC00B
:1009700060E08C2F0E943305FE01E559FE4F808117
:100980000E948E052196C531D10504F3DF91CF91E8
:10099000089587B1816087B987E690E00E94C90613
:1009A0000E94740566E080E00E94330580E091E0DB
:1009B0000E94640678940E9462040E94A104FBCF06
:1009C00088B1806388B91092BC001092B9008CE0A5
:1009D0008093B8002FEF80E792E021508040904054
:1009E000E1F700C00000089584EA8093BC0080E035
:1009F00005C091E0980F8536C0F4892F9091BC0016
:100A00009923BCF788E78093BB0084E88093BC00FF
:100A100080E005C091E0980F853648F4892F9091C9
:100A2000BC009923BCF780E0089581E0089581E03F
:100A300008958093BB0084E88093BC0080E005C0EB
:100A400091E0980F853638F4892F9091BC00992356
:100A5000BCF780E0089581E00895ECEBF0E084E9D4
:100A6000808310820895CF93DF93C82FD62F809371
:100A7000100160930F010E94F40480E00E941905A8
:100A80008D2F806B0E94190581E20E9419058C2F21
:100A9000880F880F880F0E9419058FE70E9419059B
:100AA0000E942D05DF91CF910895CF93DF9360E0F1
:100AB00080E00E9433050E94F40480E40E9419053E
:100AC000C0E0D0E004C080E00E9419052196C11565
:100AD00088E0D807C0F30E942D0560E080E00E9406
:100AE0003305DF91CF910895CF930E94E0040E94D7
:100AF000F40480E00E941905C0E008C0EC2FF0E08B
:100B0000E859FF4F84910E941905CF5FCD31B0F3B2
:100B10000E942D050E945505CF910895DF92EF9216
:100B2000FF920F931F93CF93DF93082F80910E01B5
:100B3000882309F49BC060910F01809110010E94ED
:100B400033050E94F40480E40E94190510E035C0CA
:100B5000E02FF0E0EE0FFF1FEE0FFF1FEE0FFF1F65
:100B6000E10FF11DEB57FF4F849180FBEE24E0F87D
:100B7000F12CE82FE270F0E0EE0FFF1FEE0DFF1DED
:100B8000282F247030E0220F331F220F331FE20F73
:100B9000F31F887090E0880F991F880F991F880FA6
:100BA000991FE80FF91FDE2EDD0CDE0E8D2D0E9441
:100BB00019058D2D0E9419051F5F183048F20E94FB
:100BC0002D0560910F016F5F809110010E94330528
:100BD0000E94F40480E40E94190510E038C0E02F60
:100BE000F0E0EE0FFF1FEE0FFF1FEE0FFF1FE10FF4
:100BF000F11DEB57FF4F249122952F70822F8170AA
:100C0000C82F80E0D82F822F827090E0880F991F24
:100C10008C0F9D1F422F447050E0440F551F440F0E
:100C2000551F840F951F287030E0220F331F220FAD
:100C3000331F220F331F820F931FF82EFF0CF80E65
:100C40008F2D0E9419058F2D0E9419051F5F1830E6
:100C500030F20E942D05809110018E5F809310016B
:100C600080910F01815080930F0126C060910F0188
:100C7000809110010E9433050E94F40480E40E94D8
:100C80001905C0E010C0E02FF0E0EE0FFF1FEE0FDF
:100C9000FF1FEE0FFF1FEC0FF11DEB57FF4F84916D
:100CA0000E941905CF5FC83070F30E942D05809116
:100CB00010018F5F80931001DF91CF911F910F91F1
:100CC000FF90EF90DF900895CF93DF93EC0103C086
:100CD00021960E948E0588818111FACFDF91CF91F4
:100CE00008951F920F920FB60F9211242F938F9396
:100CF0009F93EF93FF938091C0002091C60088716D
:100D0000E0911301EF5FEF7190911201E91739F053
:100D1000E0931301F0E0EA5EFE4F208301C082E021
:100D200090911101892B80931101FF91EF919F9177
:100D30008F912F910F900FBE0F901F9018951F92BB
:100D40000F920FB60F9211248F939F93EF93FF93FF
:100D50009091150180911401981769F0E0911401A8
:100D6000EF5FEF71E0931401F0E0EA5CFE4F8081E9
:100D70008093C60005C0E1ECF0E080818F7D808328
:100D8000FF91EF919F918F910F900FBE0F901F9049
:100D900018951092150110921401109213011092DF
:100DA0001201992324F422E02093C0009F779093AE
:100DB000C5008093C40088E98093C10086E08093D9
:100DC000C20008959091130180911201981781F04B
:100DD000E0911201EF5FEF71E0931201F0E0EA5E43
:100DE000FE4F8081909111011092110190E00895C1
:0A0DF00080E091E00895F894FFCF31
:0A0DFA00726563656976696E670033
:00000001FF
